:100000000C9435000C945D000C945D000C945D0024
:100010000C945D000C945D000C945D000C945D00EC
:100020000C945D000C9491010C945D000C945D00A7
:100030000C945D000C945D000C945D000C945D00CC
:100040000C9404020C945D000C94AE020C94F50226
:100050000C945D000C945D000C945D000C945D00AC
:100060000C945D000C945D005B0411241FBECFEF67
:10007000D8E0DEBFCDBF11E0A0E0B1E0E4EAF1E1FD
:1000800002C005900D92A231B107D9F712E0A2E1AA
:10009000B1E001C01D92A83EB107E1F710E0CAE649
:1000A000D0E004C02297FE010E94C008C836D107E4
:1000B000C9F70E94F7010C94D0080C94000040E0AE
:1000C00051EE60E070E089EC92E00E943003EAE7D4
:1000D000F0E080818B7F808380818260808380815B
:1000E00081608083ECE7F0E08081806280838081A2
:1000F0008F77808380818064808380818E7F8083FE
:1001000080818D7F808380818B7F80838081877FCA
:100110008083A0EBB0E08C9180688C938C918F7B76
:100120008C93E1EBF0E08081877F80838C9182600B
:100130008C938C9181608C9380818B7F8083808174
:100140008260808380818E7F8083239AE0E7F0E065
:10015000808181608083E1E8F0E080818B7F808313
:1001600080818D7F80838081816080830E944C02AA
:1001700060932602709327028093280290932902AD
:1001800060932202709323028093240290932502AD
:1001900010921A0210921B0210921C0210921D0261
:1001A0001092160210921702109218021092190261
:1001B00010921E0210921F02109220021092210231
:1001C00010921501109214011092320208958F922C
:1001D0009F92AF92BF92CF92DF92EF92FF920F93D6
:1001E0001F93CF93DF93809132028823E1F3009134
:1001F000120110911301005C1F4F0E944C026B0111
:100200007C01C0911201D0911301812C912CA12C61
:10021000B12C14C0FE01EA56FE4F608170E080E010
:1002200090E00E946E079B01AC01682D792D8A2D0C
:100230009B2D0E946B064B015C012196C017D107D4
:100240004CF30E944C020091330210913402209131
:100250003502309136020C191D092E093F09060F8F
:10026000171F281F391F0093330210933402209365
:10027000350230933602109232020E944C02609393
:100280002A0270932B0280932C0290932D020091EE
:100290002602109127022091280230912902DC01C8
:1002A000CB01801B910BA20BB30B80319742A105B0
:1002B000B10550F120E030E040E85CE3682D792D95
:1002C0008A2D9B2D0E941E089B01AC0160E070E00E
:1002D00080E093E40E946A06AB01BC0122E030E0BA
:1002E00089EC92E00E94570680912A0290912B029D
:1002F000A0912C02B0912D028093260290932702A8
:10030000A0932802B0932902DF91CF911F910F9102
:10031000FF90EF90DF90CF90BF90AF909F908F9025
:1003200008951F920F920FB60F9211242F933F93AF
:100330008F939F93AF93BF93EF93FF9381E090913F
:100340003702911180E080933702882309F442C07C
:10035000809114019091150120917900FC01EA56D9
:10036000FE4F2083FC01EF77FF27EA5EFE4F2081DE
:100370002093B3009C012F733327232B61F49C013E
:10038000205431092F773327309313012093120122
:1003900021E02093320201968F77992790931501DF
:1003A0008093140180912E0290912F02A09130022F
:1003B000B09131020196A11DB11D80932E02909340
:1003C0002F02A0933002B093310280917A008064B2
:1003D00080937A00FF91EF91BF91AF919F918F91A0
:1003E0003F912F910F900FBE0F901F9018950E9474
:1003F00072020E945F00C2EED2E00E94E7002097E6
:10040000E1F30E94E202F9CF1F920F920FB60F9212
:1004100011242F933F938F939F93AF93BF9380911A
:100420003C0290913D02A0913E02B0913F0230917A
:1004300040020196A11DB11D232F2D5F2D3720F005
:100440002D570196A11DB11D2093400280933C02BF
:1004500090933D02A0933E02B0933F0280913802F8
:1004600090913902A0913A02B0913B020196A11DF0
:10047000B11D8093380290933902A0933A02B09351
:100480003B02BF91AF919F918F913F912F910F9020
:100490000FBE0F901F9018959FB7F89420913802C7
:1004A0003091390240913A0250913B0286B5A89BA7
:1004B00006C08F3F21F02F5F3F4F4F4F5F4F9FBFD1
:1004C000542F432F322F2227280F311D411D511D3C
:1004D00082E0220F331F441F551F8A95D1F7B901BF
:1004E000CA010895789484B5826084BD84B5816022
:1004F00084BD85B5826085BD85B5816085BDEEE62C
:10050000F0E0808181608083E1E8F0E0108280810A
:1005100082608083808181608083E0E8F0E0808178
:1005200081608083E1EBF0E0808184608083E0EB98
:10053000F0E0808181608083EAE7F0E08081846080
:1005400080838081826080838081816080838081DC
:10055000806880831092C100089508951F920F92C1
:100560000FB60F9211242F933F934F938F939F9326
:10057000EF93FF934091C600209181023091820257
:100580002F5F3F4F2F7330708091830290918402D0
:100590002817390759F0E0918102F0918202EF5B50
:1005A000FD4F40833093820220938102FF91EF91AF
:1005B0009F918F914F913F912F910F900FBE0F9070
:1005C0001F901895E091D502F091D602E05CFF4FA4
:1005D0008191919120813181821B930B8F73907057
:1005E000892B11F00E94AD0208951F920F920FB651
:1005F0000F9211242F933F938F939F93EF93FF9329
:100600002091C5023091C6028091C7029091C80224
:100610002817390731F48091C1008F7D8093C10084
:1006200014C0E091C702F091C802EB57FD4F208142
:100630008091C7029091C80201968F739070909339
:10064000C8028093C7022093C600FF91EF919F914B
:100650008F913F912F910F900FBE0F901F90189583
:10066000AF92BF92DF92EF92FF920F931F93CF93BF
:10067000DF93EC017A018B01DD24403081EE5807D5
:1006800080E0680780E0780711F0DD24D39491E0E2
:10069000A92EB12CEC89FD89DD2069F0C5010E8CF5
:1006A00002C0880F991F0A94E2F7808360E079E026
:1006B0008DE390E005C0108260E874E88EE190E080
:1006C000A80197010E9491082150304040405040BD
:1006D000569547953795279580E12030380720F0CB
:1006E000DD2011F0DD24D6CFE889F9893083EA894D
:1006F000FB892083EE89FF89408121E030E0C90138
:100700000A8C02C0880F991F0A94E2F7482B408395
:10071000EE89FF894081C9010B8C02C0880F991FA7
:100720000A94E2F7482B4083EE89FF894081C90192
:100730000C8C02C0880F991F0A94E2F7482B408363
:10074000EE89FF8980810D8C02C0220F331F0A942D
:10075000E2F7209528232083DF91CF911F910F91FD
:10076000FF90EF90DF90BF90AF900895DC011C9652
:10077000ED91FC911D97E05CFF4F219131918081BB
:100780009181281B390B2F733070C9010895DC014A
:100790001C96ED91FC911D97E05CFF4F208131810B
:1007A000E054F040DF01AE5BBF4F8D919C911197FB
:1007B0002817390719F42FEF3FEF07C08D919C914F
:1007C000E80FF91F8081282F30E0C9010895DC016E
:1007D0001C96ED91FC911D97E05CFF4F20813181CB
:1007E000E054F040DF01AE5BBF4F8D919C911197BB
:1007F0002817390719F42FEF3FEF10C08D919C9106
:100800001197E80FF91F20818D919C911197019606
:100810008F73907011969C938E9330E0C901089568
:10082000FC0186859785DC01A05CBF4FFC01EE5B77
:10083000FF4F2D913C9111978081918128173907A5
:10084000C1F70895CF93DF93EC01EE85FF85E05C5F
:10085000FF4F20813181E054F0402F5F3F4F2F73D5
:100860003070DF01AE5BBF4F8D919C9111972817BF
:100870003907D1F3E05CFF4F80819181E054F04073
:10088000E80FF91F6083EE85FF85E05CFF4F318341
:100890002083EE89FF89208181E090E00D8C02C0E9
:1008A000880F991F0A94E2F7282B208381E090E0BB
:1008B000DF91CF9108951092CC021092CB0288EE76
:1008C00093E0A0E0B0E08093CD029093CE02A0939D
:1008D000CF02B093D00286E091E09093CA02809359
:1008E000C90281E492E09093D6028093D50285E814
:1008F00092E09093D8028093D70285EC90E0909399
:10090000DA028093D90284EC90E09093DC02809329
:10091000DB0280EC90E09093DE028093DD0281ECBC
:1009200090E09093E0028093DF0286EC90E0909359
:10093000E2028093E10284E08093E30283E080930B
:10094000E40287E08093E50285E08093E60281E09F
:100950008093E7020895CF92DF92EF92FF920F9378
:100960001F93CF93DF937C016B018A01C0E0D0E03D
:100970000FC0D6016D916D01D701ED91FC910190F1
:10098000F081E02DC7010995C80FD91F0150104013
:100990000115110571F7CE01DF91CF911F910F91D4
:1009A000FF90EF90DF90CF900895EF92FF920F931A
:1009B0001F938C01DC01ED91FC910190F081E02D01
:1009C0006DE009957C01D801ED91FC910190F081D9
:1009D000E02DC8016AE009959C012E0D3F1DC9015B
:1009E0001F910F91FF90EF900895CF93DF93DB015C
:1009F0000D900020E9F71197A61BB70BEC01E881D9
:100A0000F9810280F381E02DAD010995DF91CF914D
:100A100008954F925F927F928F929F92AF92BF9272
:100A2000CF92DF92EF92FF920F931F93DF93CF93BA
:100A3000CDB7DEB7A1970FB6F894DEBF0FBECDBF1E
:100A40002C01742ECB01223008F42AE019A231E2E5
:100A5000C32ED12CCC0EDD1E822E9924AA24BB24B9
:100A6000672D752FA50194010E94910879018A01D3
:100A7000C801B701A50194010E948108472D461BBA
:100A80000894C108D1084A3014F4405D01C0495CA3
:100A9000F6014083E114F1040105110521F07E2CDB
:100AA0005F2DC801DDCFC201B6010E94F504A196F9
:100AB0000FB6F894DEBF0FBECDBFCF91DF911F916F
:100AC0000F91FF90EF90DF90CF90BF90AF909F90ED
:100AD0008F907F905F904F900895DC012115310534
:100AE00041F4ED91FC910190F081E02D642F099586
:100AF00008950E9409050895CF92DF92EF92FF9228
:100B00000F931F93CF93DF93EC016A017B012115B3
:100B1000310541F4E881F9810190F081E02D642FE5
:100B200009951FC02A303105D1F477FF17C0E8813D
:100B3000F9810190F081E02D6DE209958C01442747
:100B40005527BA014C195D096E097F09CE012AE0CB
:100B50000E9409059801280F391F04C02AE00E944D
:100B600009059C01C901DF91CF911F910F91FF9061
:100B7000EF90DF90CF9008957F928F929F92AF92E7
:100B8000BF92CF92DF92EF92FF920F931F93CF937A
:100B9000DF934C017A018B01722ECB01BA0120E068
:100BA00030E040E050E00E94CF0687FD03C0C0E087
:100BB000D0E00EC0D401ED91FC910190F081E02DC8
:100BC000C4016DE20995EC0117FB109517F910951A
:100BD00020E030E040E05FE3AA240BC0CA01B90185
:100BE00020E030E040E251E40E94D3069B01AC01DA
:100BF000A394A71498F3C801B7010E946B065B0188
:100C00006C010E9440077B018C01C401B801A7015F
:100C10002AE030E00E946D05C80FD91F772039F017
:100C2000C40160E071E00E94F504C80FD91FC8013B
:100C3000B7010E946C079B01AC01C601B5010E947F
:100C40006A0624C020E030E040E251E40E941E0821
:100C50007B018C010E943B075B016C01CC24B7FC3B
:100C6000C094DC2CC401B601A5012AE030E00E944A
:100C70007C05C80FD91FC601B5010E946E079B01F4
:100C8000AC01C801B7010E946A067A947720D1F6B8
:100C9000CE01DF91CF911F910F91FF90EF90DF90E8
:100CA000CF90BF90AF909F908F907F900895EF92DC
:100CB000FF920F931F937C010E94BC058C01C7011A
:100CC0000E94D504080F191FC8011F910F91FF90B2
:100CD000EF9008955058BB27AA270ED075C166D152
:100CE00030F06BD120F031F49F3F11F41EF45BC162
:100CF0000EF4E095E7FB51C1E92F77D180F3BA17E5
:100D0000620773078407950718F071F49EF58FC189
:100D10000EF4E0950B2EBA2FA02D0B01B901900116
:100D20000C01CA01A0011124FF27591B99F0593F5A
:100D300050F4503E68F11A16F040A22F232F342FA2
:100D40004427585FF3CF469537952795A795F040F0
:100D50005395C9F77EF41F16BA0B620B730B840B05
:100D6000BAF09150A1F0FF0FBB1F661F771F881FBD
:100D7000C2F70EC0BA0F621F731F841F48F4879515
:100D800077956795B795F7959E3F08F0B3CF939504
:100D9000880F08F09927EE0F979587950895D9D079
:100DA00008F481E008950CD00FC107D140F0FED0C7
:100DB00030F021F45F3F19F0F0C0511139C1F3C098
:100DC00014D198F39923C9F35523B1F3951B550B0F
:100DD000BB27AA2762177307840738F09F5F5F4F0E
:100DE000220F331F441FAA1FA9F333D00E2E3AF04F
:100DF000E0E830D091505040E695001CCAF729D069
:100E0000FE2F27D0660F771F881FBB1F26173707B7
:100E10004807AB07B0E809F0BB0B802DBF01FF27E7
:100E200093585F4F2AF09E3F510568F0B6C000C14D
:100E30005F3FECF3983EDCF3869577956795B79521
:100E4000F7959F5FC9F7880F911D9695879597F93C
:100E50000895E1E0660F771F881FBB1F62177307B5
:100E60008407BA0720F0621B730B840BBA0BEE1FCA
:100E700088F7E095089504D06894B111D9C0089519
:100E8000BCD088F09F5790F0B92F9927B751A0F0A8
:100E9000D1F0660F771F881F991F1AF0BA95C9F70E
:100EA00012C0B13081F0C3D0B1E00895C0C0672F47
:100EB000782F8827B85F39F0B93FCCF386957795BE
:100EC0006795B395D9F73EF49095809570956195A7
:100ED0007F4F8F4F9F4F0895E89409C097FB3EF4D2
:100EE00090958095709561957F4F8F4F9F4F992377
:100EF000A9F0F92F96E9BB279395F69587957795F5
:100F00006795B795F111F8CFFAF4BB0F11F460FFB4
:100F10001BC06F5F7F4F8F4F9F4F16C0882311F00C
:100F200096E911C0772321F09EE8872F762F05C020
:100F3000662371F096E8862F70E060E02AF09A95BB
:100F4000660F771F881FDAF7880F9695879597F9B0
:100F50000895990F0008550FAA0BE0E8FEEF16164A
:100F60001706E807F907C0F012161306E407F5079D
:100F700098F0621B730B840B950B39F40A2661F011
:100F8000232B242B252B21F408950A2609F4A140B4
:100F9000A6958FEF811D811D089597F99F6780E8C1
:100FA00070E060E008959FEF80EC089500240A94BB
:100FB0001616170618060906089500240A94121634
:100FC0001306140605060895092E0394000C11F467
:100FD000882352F0BB0F40F4BF2B11F460FF04C014
:100FE0006F5F7F4F8F4F9F4F089557FD9058440F6D
:100FF000551F59F05F3F71F04795880F97FB991F78
:1010000061F09F3F79F08795089512161306140634
:10101000551FF2CF4695F1DF08C0161617061806C1
:10102000991FF1CF86957105610508940895E8949C
:10103000BB2766277727CB0197F908950BD0C4CF3C
:10104000B5DF28F0BADF18F0952309F0A6CFABCFB3
:101050001124EECFCADFA0F3959FD1F3950F50E096
:10106000551F629FF001729FBB27F00DB11D639F5A
:10107000AA27F00DB11DAA1F649F6627B00DA11D00
:10108000661F829F2227B00DA11D621F739FB00DA6
:10109000A11D621F839FA00D611D221F749F332716
:1010A000A00D611D231F849F600D211D822F762FAF
:1010B0006A2F11249F5750408AF0E1F088234AF0AC
:1010C000EE0FFF1FBB1F661F771F881F91505040F8
:1010D000A9F79E3F510570F060CFAACF5F3FECF3B8
:1010E000983EDCF3869577956795B795F795E795E4
:1010F0009F5FC1F7FE2B880F911D9695879597F9F5
:101100000895DB018F939F930E94B308BF91AF9125
:10111000A29F800D911DA39F900DB29F900D112451
:101120000895A1E21A2EAA1BBB1BFD010DC0AA1F28
:10113000BB1FEE1FFF1FA217B307E407F50720F040
:10114000A21BB30BE40BF50B661F771F881F991FBB
:101150001A9469F760957095809590959B01AC0104
:10116000BD01CF0108950E94C408A59F900DB49FB2
:10117000900DA49F800D911D11240895EE0FFF1F67
:101180000590F491E02D0994A29FB001B39FC00196
:10119000A39F01D0B29F700D811D1124911D089550
:0411A000F894FFCFF1
:1011A4002E00000000002204AB04B603E703C703CB
:0211B400100425
:00000001FF
